:1000000012C021C020C01FC01EC01DC03CC01BC0EC
:100010001AC019C018C017C016C015C014C013C02C
:1000200012C011C010C011241FBECFE5D4E0DEBF46
:10003000CDBF10E0A0E6B0E001C01D92A136B1072F
:10004000E1F702D046C0DCCFDF93CF930F92CDB75C
:10005000DEB7E7E3F0E08081E7E3F0E08FEF808355
:10006000E8E3F0E01082EEE4F0E08EE08083EAE482
:10007000F0E084E090E091838083E9E5F0E080E1C6
:1000800080837894FFCF1F920F920FB60F921124A6
:100090008F93EF93FF93DF93CF93CDB7DEB780912C
:1000A00060008F5F80936000809160008A3011F45F
:1000B00010926000E8E3F0E0809160008083CF91CF
:1000C000DF91FF91EF918F910F900FBE0F901F90D6
:0600D0001895F894FFCF23
:00000001FF
