:1000000012C045C054C017C016C015C014C013C0DC
:1000100012C011C010C00FC00EC00DC00CC00BC06C
:100020000AC009C008C011241FBECFE5D4E0DEBF5E
:10003000CDBF02D04CC0E4CFDF93CF930F92CDB7AA
:10004000DEB7E7E3F0E08081E7E3F0E08FEF808365
:10005000E8E3F0E01082EFE4F0E082EA8083EEE48F
:10006000F0E089E18083EAE4F0E088EE93E09183B8
:100070008083E8E4F0E088E893E191838083E6E41C
:10008000F0E080E29EE4918380837894FFCF1F921A
:100090000F920FB60F921124DF93CF93CDB7DEB737
:1000A000CF91DF910F900FBE0F901F9018951F9268
:1000B0000F920FB60F921124DF93CF93CDB7DEB717
:1000C000CF91DF910F900FBE0F901F901895F8946D
:0200D000FFCF60
:00000001FF
