:1000000012C019C018C017C016C015C014C013C044
:1000100012C02FC010C00FC00EC00DC00CC00BC04E
:100020000AC009C008C011241FBECFE5D4E0DEBF5E
:10003000CDBF02D046C0E4CFDF93CF930F92CDB7B0
:10004000DEB7E7E3F0E08081E7E3F0E08FEF808365
:10005000E8E3F0E01082E3E5F0E082E08083E2E5AF
:10006000F0E083E88083E9E5F0E081E08083789444
:10007000FFCF1F920F920FB60F9211248F939F9371
:10008000AF93BF93EF93FF93DF93CF93CDB7DEB7DB
:10009000E2E5F0E083E88083A8E3B0E0E8E3F0E0A5
:1000A000908181E089278C93CF91DF91FF91EF912F
:1000B000BF91AF919F918F910F900FBE0F901F90A6
:0600C0001895F894FFCF33
:00000001FF
