:1000000012C019C018C017C016C015C014C013C044
:1000100032C011C010C00FC00EC00DC00CC00BC04C
:100020000AC009C008C011241FBECFE5D4E0DEBF5E
:10003000CDBF02D04AC0E4CFDF93CF930F92CDB7AC
:10004000DEB7E7E3F0E08081E7E3F0E08FEF808365
:10005000E8E3F0E01082EEE4F0E081E08083ECE49D
:10006000F0E08FEE98ED91838083E9E5F0E084E0A5
:1000700080837894FFCF1F920F920FB60F921124B6
:100080008F939F93AF93BF93EF93FF93DF93CF93A0
:10009000CDB7DEB7ECE4F0E08FEE98ED918380838E
:1000A000A8E3B0E0E8E3F0E0908181E089278C9359
:1000B000CF91DF91FF91EF91BF91AF919F918F9180
:0E00C0000F900FBE0F901F901895F894FFCF71
:00000001FF
